:020000040000fa
:080000000002040000000000f2
:020000040000fa
:040008000c030000e5
:020000040000fa
:04000c000c030000e1
:020000040000fa
:040010000c030000dd
:020000040000fa
:040014000c030000d9
:020000040000fa
:040018000c030000d5
:020000040000fa
:04001c000c030000d1
:020000040000fa
:040020000c030000cd
:020000040000fa
:040024000c030000c9
:020000040000fa
:04002800ee020000e4
:020000040000fa
:04002c000c030000c1
:020000040000fa
:040030000c030000bd
:020000040000fa
:04003400c8020000fe
:020000040000fa
:040038000c030000b5
:020000040000fa
:04003c000c030000b1
:020000040000fa
:040040000c030000ad
:020000040000fa
:040044000c030000a9
:020000040000fa
:040048000c030000a5
:020000040000fa
:04004c000c030000a1
:020000040000fa
:040050000c0300009d
:020000040000fa
:040054000c03000099
:020000040000fa
:040058000c03000095
:020000040000fa
:04005c000c03000091
:020000040000fa
:040060000c0300008d
:020000040000fa
:040064000c03000089
:020000040000fa
:040068000c03000085
:020000040000fa
:04006c000c03000081
:020000040000fa
:040070000c0300007d
:020000040000fa
:040074000c03000079
:020000040000fa
:040078000c03000075
:020000040000fa
:04007c000c03000071
:020000040000fa
:040080000c0300006d
:020000040000fa
:040084000c03000069
:020000040000fa
:040088000c03000065
:020000040000fa
:04008c000c03000061
:020000040000fa
:040090000c0300005d
:020000040000fa
:040094000c03000059
:020000040000fa
:040098000c03000055
:020000040000fa
:04009c000c03000051
:020000040000fa
:0400a0000c0300004d
:020000040000fa
:0400a4000c03000049
:020000040000fa
:0400a8000c03000045
:020000040000fa
:0400ac000c03000041
:020000040000fa
:0400b0000c0300003d
:020000040000fa
:0400b4000c03000039
:020000040000fa
:0400b8000c03000035
:020000040000fa
:0400bc000c03000031
:020000040000fa
:0400c0000c0300002d
:020000040000fa
:0400c4000c03000029
:020000040000fa
:0400c8000c03000025
:020000040000fa
:0400cc000c03000021
:020000040000fa
:0400d0000c0300001d
:020000040000fa
:0400d4000c03000019
:020000040000fa
:0400d8000c03000015
:020000040000fa
:0400dc000c03000011
:020000040000fa
:0400e0000c0300000d
:020000040000fa
:0400e4000c03000009
:020000040000fa
:0400e8000c03000005
:020000040000fa
:0400ec000c03000001
:020000040000fa
:0400f0000c030000fd
:020000040000fa
:0400f4000c030000f9
:020000040000fa
:0400f8000c030000f5
:020000040000fa
:0400fc000c030000f1
:020000040000fa
:040100000c030000ec
:020000040000fa
:040104000c030000e8
:020000040000fa
:040108000c030000e4
:020000040000fa
:04010c000c030000e0
:020000040000fa
:040110000c030000dc
:020000040000fa
:040114000c030000d8
:020000040000fa
:040118000c030000d4
:020000040000fa
:04011c000c030000d0
:020000040000fa
:040120000c030000cc
:020000040000fa
:040124000c030000c8
:020000040000fa
:040128000c030000c4
:020000040000fa
:04012c000c030000c0
:020000040000fa
:040130000c030000bc
:020000040000fa
:040134000c030000b8
:020000040000fa
:040138000c030000b4
:020000040000fa
:04013c000c030000b0
:020000040000fa
:040140000c030000ac
:020000040000fa
:040144000c030000a8
:020000040000fa
:040208000c030000e3
:020000040000fa
:04020c000c030000df
:020000040000fa
:040210000c030000db
:020000040000fa
:040214000c030000d7
:020000040000fa
:040218000c030000d3
:020000040000fa
:04021c000c030000cf
:020000040000fa
:040220000c030000cb
:020000040000fa
:040224000c030000c7
:020000040000fa
:04022800ee020000e2
:020000040000fa
:04022c000c030000bf
:020000040000fa
:040230000c030000bb
:020000040000fa
:04023400c8020000fc
:020000040000fa
:040238000c030000b3
:020000040000fa
:04023c000c030000af
:020000040000fa
:040240000c030000ab
:020000040000fa
:040244000c030000a7
:020000040000fa
:040248000c030000a3
:020000040000fa
:04024c000c0300009f
:020000040000fa
:040250000c0300009b
:020000040000fa
:040254000c03000097
:020000040000fa
:040258000c03000093
:020000040000fa
:04025c000c0300008f
:020000040000fa
:040260000c0300008b
:020000040000fa
:040264000c03000087
:020000040000fa
:040268000c03000083
:020000040000fa
:04026c000c0300007f
:020000040000fa
:040270000c0300007b
:020000040000fa
:040274000c03000077
:020000040000fa
:040278000c03000073
:020000040000fa
:04027c000c0300006f
:020000040000fa
:040280000c0300006b
:020000040000fa
:040284000c03000067
:020000040000fa
:040288000c03000063
:020000040000fa
:04028c000c0300005f
:020000040000fa
:040290000c0300005b
:020000040000fa
:040294000c03000057
:020000040000fa
:040298000c03000053
:020000040000fa
:04029c000c0300004f
:020000040000fa
:0402a0000c0300004b
:020000040000fa
:0402a4000c03000047
:020000040000fa
:0402a8000c03000043
:020000040000fa
:0402ac000c0300003f
:020000040000fa
:0402b0000c0300003b
:020000040000fa
:0402b4000c03000037
:020000040000fa
:0402b8000c03000033
:020000040000fa
:0402bc000c0300002f
:020000040000fa
:0402c0000c0300002b
:020000040000fa
:0402c4000c03000027
:020000040000fa
:0402c8000c03000023
:020000040000fa
:0402cc000c0300001f
:020000040000fa
:0402d0000c0300001b
:020000040000fa
:0402d4000c03000017
:020000040000fa
:0402d8000c03000013
:020000040000fa
:0402dc000c0300000f
:020000040000fa
:0402e0000c0300000b
:020000040000fa
:0402e4000c03000007
:020000040000fa
:0402e8000c03000003
:020000040000fa
:0402ec000c030000ff
:020000040000fa
:0402f0000c030000fb
:020000040000fa
:0402f4000c030000f7
:020000040000fa
:0402f8000c030000f3
:020000040000fa
:0402fc000c030000ef
:020000040000fa
:040300000c030000ea
:020000040000fa
:040304000c030000e6
:020000040000fa
:040308000c030000e2
:020000040000fa
:04030c000c030000de
:020000040000fa
:040310000c030000da
:020000040000fa
:040314000c030000d6
:020000040000fa
:040318000c030000d2
:020000040000fa
:04031c000c030000ce
:020000040000fa
:040320000c030000ca
:020000040000fa
:040324000c030000c6
:020000040000fa
:040328000c030000c2
:020000040000fa
:04032c000c030000be
:020000040000fa
:040330000c030000ba
:020000040000fa
:040334000c030000b6
:020000040000fa
:040338000c030000b2
:020000040000fa
:04033c000c030000ae
:020000040000fa
:040340000c030000aa
:020000040000fa
:040344000c030000a6
:020000040000fa
:10040000af8020000eff27000e01880000000000d2
:10041000000020000000e000020032000001200087
:1004200020028800140007007d0007000000e000a3
:1004300003003a00204120000100200002003700a4
:100440000000200001002000810f70000100320038
:1004500014000700000020000000e000020032004d
:100460000000020000000000120302000000000073
:100470000040da000000fe004440a9000000200017
:100480000000e0000300320000002000a00188000e
:100490004440a800000006008a1f78008b1f7800e7
:1004a0000000060091018800800478000000eb0045
:1004b0001a003700e284440032a0b4009905ba0063
:1004c000e284440032a0b4009906ba00e2844400f9
:1004d00032a0b4000006eb00476fde00fd07b2005b
:1004e000636ce10003003a00ebff07000000eb0043
:1004f0000a003700606ce10004003a00005deb0088
:100500008b05e900fdff3e00040037006168e10053
:10051000010032000086eb000b00070019c7ba008b
:100520001905ba000e04e00003003a000a00e000da
:10053000e0ff3a0000000600fe07b2009e018800be
:100540008a047800f5ff3700395dba008b05e900b1
:100550000c003200295dba008b05e900080032006a
:100560000c00e00003003a00e284440032a0b40032
:10057000f5ff370019ddba008b05e900faff3a00f4
:100580008904e800e184440032a0b40000000600c1
:10059000801f78003400f80000002000a0018800cf
:1005a0000000fa008460a900004080000000e8001c
:1005b0000040880006c8bf000004e00003003200cd
:1005c000104080000000e800104088000080fa0021
:1005d0003400f9004f00780000400600801f7800ca
:1005e0003400f80000002000a00188000000fa009c
:1005f0008400a900800020002040880010c0b300c3
:1006000006e8b7000228ef000080fa003400f90085
:100610004f007800004006000040da000000fe00b5
:0406200000000500d1
:020000040000fa
:100624000000fa0078000700010037000000000015
:1006340020408000e80f500003003200104080008a
:10064400ea0f50000e003a0010408000ea0f5000fc
:1006540006003a0010002000404088000028ef0007
:100664000228ef000668ef000400370020408000f5
:10067400e80f500001003a000428ef00480037005a
:10068400204080000000e000e8ff3a004040800085
:10069400e30f500018003200e30f500003003e0047
:1006a400e10f500006003200e1ff3700e40f500074
:1006b4001f003200e60f50002b003200dcff370031
:1006c40000408000f70f500004003e00c842a9001b
:1006d400c822a900c802a800060037000040800014
:1006e400f80f500003003a0030002000404088001a
:1006f4000028ef002a00370000408000e20f50007d
:1007040004003e00c842a900c822a800c802a800ec
:100714000600370000408000e30f500003003a0059
:1007240040002000404088000028ef001c003700f3
:1007340000408000ee0f500004003e00c842a800b4
:10074400c822a900c802a9000600370000408000a2
:10075400ef0f500003003a00600020004040880082
:100764000028ef000e00370000408000e20f500028
:1007740004003e00c842a800c822a800c802a9007c
:100784000600370000408000e30f500003003a00e9
:1007940010002000404088000028ef000000000006
:1007a400a3ff37000000fa000021ef00803e200084
:1007b4001008880005e1a8008460a9009460a800de
:1007c4000080fa00000006000000fa008400a9007e
:1007d4009400a8000080fa00000006000000fa005f
:1007e4000080eb00601988000080eb00501988003d
:1007f4000080eb00601b8800c622ef00c822ef00d7
:100804000080fa00000006000000fa00f3ff070071
:10081400e4ff0700ecff07000080fa000000060078
:020000040000fa
:1008240000080000080000000000000008080000a4
:1008340002000000020000000100000000000000af
:00000001FF
